:020000040000FA
:10000000FE0E25009F0C02003F0C2C000600FF0C8A
:10001000EC09FF0CEC09FF0CEC09FF0CEC09660085
:1000200075001305BC09A00CC309000CC309BC0969
:10003000A10CC309D709E3090B022E00D709E30974
:100040000B022F00D709E8090B023000BF09C00CD2
:100050006F018F05BC09200CC309C00CC309010C3A
:10006000C3091002C3090F02C309BF090F0C6E01B7
:10007000EE05560AA709030E4306830A400CEC0955
:10008000A709030E4306830A32007100FF0CEC0936
:10009000A709030E4306640AB1021207530AAE020F
:1000A0008E06EE00560AEE00EE07AE02BC09220CE8
:1000B000C309050CC309880CC3090E02C309BF0993
:1000C0001307460A13043A0A310243077A0A7400F6
:1000D0001505BC09200CC3091207740AC30CC30917
:1000E000010CC309BF09830AC10CC309010CC30970
:1000F000BF09830ABC09A00CC309000CC3090E0286
:10010000C309BF093A0A450CEC09F4033A0A15077A
:100110003A0A1504BC09220CC309030CC309BC0923
:10012000230CC309D709E3090B023000D709E809FA
:100130000B022F00BF09BC09A00CC309010CC309A5
:100140000F02C309F0041002C309BF093A0A660787
:1001500001080607020800084C050C02060000080A
:100160004C040C02060000082C050C0206000008D6
:100170002C040C0206000008B409B0090008B009FC
:10018000B409AC0900082B00080C2A00B809EB07D9
:10019000CB0AAC09CC0AB009B4096B03EA02C60A5F
:1001A000B809AC09B40906022D00B8090008080C0A
:1001B0002A006B006B03B809B40946060B05EA0276
:1001C000DA0AB8090008B009B409B809AC0900088E
:1001D000AC09B409B809000828002900E802EE0AB1
:0601E000E902EE0A00082E
:080400000F00020000000200E1
:021FFE00EB0FE7
:00000001FF
