:020000040000FA
:10000000FE0E25009F0C02003F0C34000600FF0C82
:10001000EC09FF0CEC09FF0CEC09FF0CEC09660085
:100020007D001B05BC09A00CC309000CC309BC0959
:10003000A10CC309D709E30913023600D709E30964
:1000400013023700D709E80913023800BF09C00CB2
:1000500077019705BC09200CC309C00CC309010C2A
:10006000C3091802C3091702C309BF090F0C76019F
:10007000F605560AA709030E4306830A400CEC094D
:10008000A709030E4306830A3A007900FF0CEC0926
:10009000A709030E4306640AB9021A07530AB602F7
:1000A0009606F600560AF600F607B602BC09220CC0
:1000B000C309050CC309880CC3091602C309BF098B
:1000C0001B07460A1B043A0A390243077A0A7C00D6
:1000D0001D05BC09200CC3091A07740AC30CC30907
:1000E000010CC309BF09830AC10CC309010CC30970
:1000F000BF09830ABC09A00CC309000CC30916027E
:10010000C309BF093A0A450CEC09FC033A0A1D076A
:100110003A0A1D04BC09220CC309030CC309BC091B
:10012000230CC309D709E30913023800D709E809EA
:1001300013023700BF09BC09A00CC309010CC30995
:100140001702C309F8041802C309BF093A0A66076F
:1001500001080607020800085405140206000008FA
:1001600054041402060000083405140206000008B6
:100170003404140206000008B409B0090008B009EC
:10018000B409AC0900083300080C3200B809F307C1
:10019000CB0AAC09CC0AB009B4097303F202C60A4F
:1001A000B809AC09B40906023500B8090008080C02
:1001B000320073007303B809B40946061305F2024E
:1001C000DA0AB8090008B009B409B809AC0900088E
:1001D000AC09B409B809000830003100F002EE0A99
:0601E000F102EE0A000826
:080200000F00020000000000E5
:021FFE00EB0FE7
:00000001FF
