:020000040000FA
:10000000FE0E25009F0C02003F0C2B000600FF0C8B
:10001000EC09FF0CEC09FF0CEC09FF0CEC09660085
:1000200074001205BC09A00CC309000CC309BC096B
:10003000A10CC309D709E3090A022D00D709E30976
:100040000A022E00D709E8090A022F00BF09C00CD6
:100050006E018E05BC09200CC309C00CC309010C3C
:10006000C3090F02C3090E02C309BF090F0C6D01BA
:10007000ED05560AA709030E4306830A400CEC0956
:10008000A709030E4306830A31007000FF0CEC0938
:10009000A709030E4306640AB0021107530AAD0212
:1000A0008D06ED00560AED00ED07AD02BC09220CED
:1000B000C309050CC309880CC3090D02C309BF0994
:1000C0001207460A12043A0A300243077A0A7300FA
:1000D0001405BC09200CC3091107740AC30CC30919
:1000E000010CC309BF09830AC10CC309010CC30970
:1000F000BF09830ABC09A00CC309000CC3090D0287
:10010000C309BF093A0A450CEC09F3033A0A14077C
:100110003A0A1404BC09220CC309030CC309BC0924
:10012000230CC309D709E3090A022F00D709E809FC
:100130000A022E00BF09BC09A00CC309010CC309A7
:100140000E02C309EF040F02C309BF093A0A0607EA
:100150000108260702080008AB050B02060000088C
:10016000AB040B02060000088B050B02060000081A
:100170008B040B0206000008B409B0090008B0099E
:10018000B409AC0900082A00080C2900B809EA07DC
:10019000CB0AAC09CC0AB009B4096A03E902C60A61
:1001A000B809AC09B40906022C00B8090008080C0B
:1001B00029006A006A03B809B409A6060A05E9021B
:1001C000DA0AB8090008B009B409B809AC0900088E
:1001D000AC09B409B809000827002800E702EE0AB4
:0601E000E802EE0A00082F
:080800000F00050000000900D3
:021FFE00EA0FE8
:00000001FF
