:020000040000FA
:10000000FE0E2500000C27009F0C02003F0C2D0067
:100010000600FF0CEE09FF0CEE09FF0CEE09FF0CC9
:10002000EE09660076001405BE09A00CC509000C97
:10003000C509BE09A10CC509D909E5090C022F00A3
:10004000D909E5090C023000D909EA090C0231008E
:10005000C109C00C70019005BE09200CC509C00C77
:10006000C509010CC5091102C5091002C509C1095C
:100070000F0C6F01EF05580AA909030E4306850A04
:10008000400CEE09A909030E4306850A33007200ED
:10009000FF0CEE09A909030E4306660AB202130714
:1000A000550AAF028F06EF00580AEF00EF07AF02C4
:1000B000BE09220CC509050CC509880CC5090F022B
:1000C000C509C1091407480A14043C0A320243074F
:1000D0007C0A75001605BE09200CC5091307760AAF
:1000E000C30CC509010CC509C109850AC10CC509A4
:1000F000010CC509C109850ABE09A00CC509000C7F
:10010000C5090F02C509C1093C0A450CEE09F503F2
:100110003C0A16073C0A1604BE09220CC509030C4A
:10012000C509BE09230CC509D909E5090C0231002E
:10013000D909EA090C023000C109BE09A00CC509A1
:10014000010CC5091002C509F1041102C509C10954
:100150003C0A660701080607020800084D050D0263
:10016000060000084D040D02060000082D050D02D2
:10017000060000082D040D0206000008B609B209A9
:100180000008B209B609AE0900082C00080C2B00C3
:10019000BA09EC07CD0AAE09CE0AB209B6096C035A
:1001A000EB02C80ABA09AE09B60906022E00BA095E
:1001B0000008080C2B006C006C03BA09B60946064F
:1001C0000C05EB02DC0ABA090008B209B609BA0943
:1001D000AE090008AE09B609BA09000829002A00CC
:0A01E000E902F00AEA02F00A000842
:080400000F00020002000200DF
:021FFE00EA0FE8
:00000001FF
