:020000040000FA
:10000000FE0E2500000C27009F0C02003F0C340060
:100010000600FF0CEE09FF0CEE09FF0CEE09FF0CC9
:10002000EE0966007D001B05BE09A00CC509000C89
:10003000C509BE09A10CC509D909E5091302360095
:10004000D909E50913023700D909EA091302380072
:10005000C109C00C77019705BE09200CC509C00C69
:10006000C509010CC5091802C5091702C509C1094E
:100070000F0C7601F605580AA909030E4306850AF6
:10008000400CEE09A909030E4306850A3A007900DF
:10009000FF0CEE09A909030E4306660AB9021A0706
:1000A000550AB6029606F600580AF600F607B6029A
:1000B000BE09220CC509050CC509880CC509160224
:1000C000C509C1091B07480A1B043C0A390243073A
:1000D0007C0A7C001D05BE09200CC5091A07760A9A
:1000E000C30CC509010CC509C109850AC10CC509A4
:1000F000010CC509C109850ABE09A00CC509000C7F
:10010000C5091602C509C1093C0A450CEE09FC03E4
:100110003C0A1D073C0A1D04BE09220CC509030C3C
:10012000C509BE09230CC509D909E5091302380020
:10013000D909EA0913023700C109BE09A00CC50993
:10014000010CC5091702C509F8041802C509C1093F
:100150003C0A660701080607020800085405140255
:1001600006000008540414020600000834051402B6
:10017000060000083404140206000008B609B2099B
:100180000008B209B609AE0900083300080C3200B5
:10019000BA09F307CD0AAE09CE0AB209B60973034C
:1001A000F202C80ABA09AE09B60906023500BA0950
:1001B0000008080C320073007303BA09B60946063A
:1001C0001305F202DC0ABA090008B209B609BA0935
:1001D000AE090008AE09B609BA09000830003100BE
:0A01E000F002F00AF102F00A000834
:080200000F00020000000400E1
:021FFE00EB0FE7
:00000001FF
