:020000040000FA
:10000000FE0E2500000C27009F0C02003F0C2C0068
:100010000600FF0CEE09FF0CEE09FF0CEE09FF0CC9
:10002000EE09660075001305BE09A00CC509000C99
:10003000C509BE09A10CC509D909E5090B022E00A5
:10004000D909E5090B022F00D909EA090B02300092
:10005000C109C00C6F018F05BE09200CC509C00C79
:10006000C509010CC5091002C5090F02C509C1095E
:100070000F0C6E01EE05580AA909030E4306850A06
:10008000400CEE09A909030E4306850A32007100EF
:10009000FF0CEE09A909030E4306660AB102120716
:1000A000550AAE028E06EE00580AEE00EE07AE02CA
:1000B000BE09220CC509050CC509880CC5090E022C
:1000C000C509C1091307480A13043C0A3102430752
:1000D0007C0A74001505BE09200CC5091207760AB2
:1000E000C30CC509010CC509C109850AC10CC509A4
:1000F000010CC509C109850ABE09A00CC509000C7F
:10010000C5090E02C509C1093C0A450CEE09F403F4
:100110003C0A15073C0A1504BE09220CC509030C4C
:10012000C509BE09230CC509D909E5090B02300030
:10013000D909EA090B022F00C109BE09A00CC509A3
:10014000010CC5090F02C509F0041002C509C10957
:100150003C0A660701080607020800084C050C0265
:10016000060000084C040C02060000082C050C02D6
:10017000060000082C040C0206000008B609B209AB
:100180000008B209B609AE0900082B00080C2A00C5
:10019000BA09EB07CD0AAE09CE0AB209B6096B035C
:1001A000EA02C80ABA09AE09B60906022D00BA0960
:1001B0000008080C2A006B006B03BA09B609460652
:1001C0000B05EA02DC0ABA090008B209B609BA0945
:1001D000AE090008AE09B609BA09000828002900CE
:0A01E000E802F00AE902F00A000844
:080400000F00020000000600DD
:021FFE00EB0FE7
:00000001FF
