:020000040000FA
:10000000FE0E2500000C2700000C28009F0C0200AB
:100010003F0C2E000600FF0CF009FF0CF009FF0C4E
:10002000F009FF0CF009660077001505C009A00C67
:10003000C709000CC709C009A10CC709DB09E709FA
:100040000D023000DB09E7090D023100DB09EC0984
:100050000D023200C309C00C71019105C009200CCA
:10006000C709C00CC709010CC7091202C709110250
:10007000C709C3090F0C7001F0055A0AAB09030E3A
:100080004306870A400CF009AB09030E4306870AB2
:1000900034007300FF0CF009AB09030E4306680A35
:1000A000B3021407570AB0029006F0005A0AF00093
:1000B000F007B002C009220CC709050CC709880C5B
:1000C000C7091002C709C30915074A0A15043E0AE1
:1000D000330243077E0A76001705C009200CC709C2
:1000E0001407780AC30CC709010CC709C309870A9A
:1000F000C10CC709010CC709C309870AC009A00CB4
:10010000C709000CC7091002C709C3093E0A450CFC
:10011000F009F6033E0A17073E0A1704C009220C2D
:10012000C709030CC709C009230CC709DB09E70984
:100130000D023200DB09EC090D023100C309C009D0
:10014000A00CC709010CC7091102C709F204120269
:10015000C709C3093E0A0607010826070208000866
:10016000AE050E0206000008AE040E0206000008EE
:100170008E050E02060000088E040E02060000081E
:10018000B809B4090008B409B809B00900082D007D
:10019000080C2C00BC09ED07CF0AB009D00AB4093D
:1001A000B8096D03EC02CA0ABC09B009B809060215
:1001B0002F00BC090008080C2C006D006D03BC0961
:1001C000B809A6060D05EC02DE0ABC090008B40950
:1001D000B809BC09B0090008B009B809BC09000891
:0E01E0002A002B00EA02F20AEB02F20A0008E3
:080800000F00050001000000DB
:021FFE00CA0F08
:00000001FF
